:020000040800F2
:100000001808002001010008090300080103000886
:1000100005030008550100086709000800000000FA
:1000200000000000000000000000000001070008C0
:100030005901000800000000A90600083508000862
:100040001B0100081B0100081B0100081B01000820
:100050001B0100081B0100081B0100081B01000810
:100060001B0100081B0100081B0100081B01000800
:100070001B0100081B0100081B0100081B010008F0
:100080001B0100081B0100081B0100081B010008E0
:100090001B0100081B0100081B0100081B010008D0
:1000A0001B0100081B0100081B0100081B010008C0
:1000B0001B0100081B0100081B0100081B010008B0
:1000C0001B0100081B0100081B0100081B010008A0
:1000D0001B010008990800081B0100081B0100080B
:1000E0001B0100081B0100081B010008DFF80CD0F1
:1000F00000F018F800480047190A00081808002006
:100100000648804706480047FEE7FEE7FEE7FEE7B1
:10011000FEE7FEE7FEE7FEE7FEE7FEE73908000838
:10012000ED000008064C074D06E0E06840F00103D2
:1001300094E8070098471034AC42F6D3FFF7DAFF93
:10014000A4140008C41400080149086070470000A6
:1001500000860D4200BFFEE770472DE9F0410246E0
:1001600000250026002000230024002791F803C06A
:100170000CF00F0591F803C00CF0100CBCF1000F4F
:1001800003D091F802C04CEA050591F800C0BCF11B
:10019000000F31D0146800202BE04FF0010C0CFA56
:1001A00000F3B1F800C00CEA03069E4220D18300A0
:1001B0004FF00F0C0CFA03F7BC4305FA03FC4CEAB2
:1001C000040491F803C0BCF1280F06D14FF0010CD4
:1001D0000CFA00FCC2F814C00AE091F803C0BCF1AC
:1001E000480F05D14FF0010C0CFA00FCC2F810C00A
:1001F000401C0828D1D31460B1F800C0BCF1FF0F37
:1002000034DD546800202EE000F1080C4FF00108A6
:1002100008FA0CF3B1F800C00CEA03069E4221D1A3
:1002200083004FF00F0C0CFA03F7BC4305FA03FCF4
:100230004CEA040491F803C0BCF1280F05D100F189
:10024000080C08FA0CF8C2F8148091F803C0BCF14D
:10025000480F07D100F1080C4FF0010808FA0CF81C
:10026000C2F81080401C0828CED35460BDE8F0814D
:10027000F0B50A46002300240021002500F00046C6
:10028000B6F1004F02D11D4EF16901E01B4E7168BD
:10029000C0F3034583B200F44016B6F5401F08D101
:1002A00021F07061154E766826F07066134F7E60FF
:1002B00012E000F48016B6F5801F06D1032606FA78
:1002C00005F4A14341F0706106E0460D360103FAE2
:1002D00006F6B14341F0706122B1460D360103FAD2
:1002E00006F6314300F00046B6F1004F02D1034E4E
:1002F000F16101E0014E7160F0BD000000000140BD
:1003000000BFFEE700BFFEE77047000030B50024E5
:100310000CE0002506E00020074901EBC501085567
:10032000681CC5B2802DF6DB601CC4B2082CF0DB63
:1003300000F0ECF830BD000018000020F0B51446C5
:1003400000267F2801DC3F2900DDF0BD0B46CF17DA
:1003500001EB5777FF10C7F10707FAB2CF1701EB90
:100360005777FF10A1EBC707FDB2C5F107070123BF
:10037000BB40DEB24CB10A4B03EBC0039B5C334382
:10038000074F07EBC007BB5408E0054B03EBC00366
:100390009B5CB343024F07EBC007BB5400BFD4E7DD
:1003A0001800002008B50121082000F07FF9012184
:1003B000084600F07BF901214F48FFF759FF38202C
:1003C000ADF8000010208DF8030002208DF8020027
:1003D00069464A48FFF7C1FE0121042000F066F992
:1003E0004FF40040ADF8000002208DF8020010200C
:1003F0008DF8030069464248FFF7AFFE012000F088
:100400004DF9002000F062F90020FFF79DFE00206A
:1004100000F044F900203B490860642000F0D6FA5F
:1004200001203949C1F88C010021AE2000F00AF901
:100430000021D52000F006F90021502000F002F93B
:100440000021A82000F0FEF800213F2000F0FAF87B
:100450000021D32000F0F6F80021084600F0F2F861
:100460000021402000F0EEF800218D2000F0EAF895
:100470000021142000F0E6F80021202000F0E2F82E
:100480000021022000F0DEF80021A12000F0DAF8BF
:100490000021C02000F0D6F80021DA2000F0D2F8C8
:1004A0000021122000F0CEF80021812000F0CAF8CF
:1004B0000021EF2000F0C6F80021D92000F0C2F89A
:1004C0000021F12000F0BEF80021DB2000F0BAF896
:1004D0000021302000F0B6F80021A42000F0B2F88E
:1004E0000021A62000F0AEF80021AF2000F0AAF80D
:1004F000FFF70CFF08BD000000023000000C0140B7
:10050000000801408C8121420080214230B5002446
:100510001CE004F1B001C8B2002100F093F8002102
:10052000084600F08FF80021102000F08BF800251D
:1005300008E0084901EBC501085D012100F082F8DF
:10054000681CC5B2802DF4DB601CC4B2082CE0DB53
:1005500030BD0000180000202DE9F04F80460C4609
:1005600015461E46A346A5F12000C5B200273EE071
:100570000C2E07D105EB45001F4901EB800010F858
:10058000079004E01D4800EB051010F807904FF0AD
:10059000000A26E009F0800028B121464046099A69
:1005A000FFF7CCFE09E0099808B9012000E000201F
:1005B000024621464046FFF7C1FE4FEA49604FEA36
:1005C0001069601CC4B2A4EB0B00B04205D15C46BC
:1005D00008F1010000F0FF0806E00AF1010000F058
:1005E000FF0ABAF1080FD5DB00BF781CC7B2B742CB
:1005F000BEDBBDE8F08F0000400A0008B40E000822
:1006000078B505460E46144618E07A2D03DD002520
:1006100006F11000C6B23A2E04DD0020054606465B
:10062000FFF774FE0120009022780C233146284603
:10063000FFF792FF05F10800C5B2641C207800287E
:10064000E3D178BD10B50A461AB10123114C2360DD
:1006500002E000230F4C2360002114E000230E4C25
:10066000236000F080031BB10123241F236003E0FB
:100670000023094C241F23600123074C23604306F9
:10068000180E4B1CD9B20829E8DB0123014C23606A
:1006900010BD0000BC012142948121420149086241
:1006A0007047000000000E427047000029B1064A62
:1006B00092690243044B9A6104E0034A92698243BF
:1006C000014B9A61704700000010024000210B4A64
:1006D00011700A4A203A82F82010012802D004281A
:1006E00008D103E00121054A117004E00521034A05
:1006F000117000E000BF00BF7047000020100240F2
:100700007047000010B504462146054800F027F95F
:1007100000BF8021024800F0E6F80028F9D010BDA3
:100720000038014010B500F001F810BD0CB50020F4
:10073000019000903348006840F4803031490860EF
:1007400000BF3048006800F4003000900198401C61
:100750000190009818B90198B0F5A06FF1D129481F
:10076000006800F4003010B10120009001E000208A
:1007700000900098012843D12348006840F0100001
:10078000214908600846006820F003000860084618
:10079000006840F0020008601A4840681949486043
:1007A0000846406848600846406840F480604860F9
:1007B0000846406820F47C1048600846406840F4D1
:1007C000E81048600846006840F08070086000BF8C
:1007D0000C48006800F000700028F9D00948406813
:1007E00020F00300074948600846406840F00200D6
:1007F000486000BF0348406800F00C000828F9D1A9
:100800000CBD00000010024000200240042808D166
:100810004FF0E021096941F004014FF0E02211613D
:1008200007E04FF0E021096921F004014FF0E022D8
:10083000116170477047000010B51348006840F020
:1008400001001149086008464068104908400E49F7
:100850004860084600680E4908400B490860084691
:10086000006820F4802008600846406820F4FE00FC
:1008700048604FF41F008860FFF754FF4FF000609E
:100880000449086010BD0000001002400000FFF89D
:10089000FFFFF6FE08ED00E010B540F225510948D3
:1008A00000F02EF801280CD1064800F053F8C4B22D
:1008B0002046FFF727FF40F22551024800F004F8D8
:1008C00000BF10BD0038014010B50022002340F6E3
:1008D0006A14A14200D100BF0A1201249440A3B2BD
:1008E000DC43048010BD02460020B1F5007F00D13A
:1008F00000BF13880B400BB1012000E000207047BF
:1009000070B50246002400230025002040F66A1638
:10091000B14200D100BFC1F3421501F01F0301260F
:1009200006FA03F3012D02D19689334006E0022D29
:1009300002D1168A334001E0968A33400C12012618
:1009400006FA04F41688344013B10CB1012000E01B
:10095000002070BD01468888C0F308007047C1F3CD
:1009600008028280704700BFFEE702E008C8121F3D
:1009700008C1002AFAD170477047002001E001C188
:10098000121F002AFBD1704710B56FF00400FFF76B
:100990003DFF0A4800680A49B0FBF1F009490870B8
:1009A0000846007800EB4001C1EBC0104FF6FF7124
:1009B00001EAC0000449088010BD000000000020CA
:1009C00000127A0014000020160000200146114A8F
:1009D00012884A434FF0E0235A6100229A611A4676
:1009E000126942F001021A6100BF4FF0E022106963
:1009F00000F001021AB100F48032002AF5D04FF065
:100A0000E022126922F001024FF0E0231A61002275
:100A10009A61704716000020FFF7B6FFFFF7C2FC8F
:100A2000FFF774FCFFF772FD04A200210846FFF7F0
:100A3000E7FDFFF76BFD00BFFEE700002D000000A3
:100A400000000000000000000000000000000000A6
:100A50003F40000000000000000030004000300077
:100A60004000000009000BC03D000BC03D00090024
:100A700018C024407FE0224031800000180024C0CC
:100A80001B000D803240018003801C4027401C80E9
:100A9000074000401000600000000000000000005F
:100AA0000000000000001F80204040200000402087
:100AB00020401F8000000000090006001F80060083
:100AC00009000000040004003F800400040000004E
:100AD000001000600000000000000000040004009E
:100AE00004000400040000000000004000000000BA
:100AF00000000000002001C0060038004000000097
:100B00001F802040204020401F8000000000104037
:100B10003FC000400000000018C021402240244097
:100B20001840000010802040244024401B8000001A
:100B300002000D0011003FC0014000003C80244035
:100B400024402440238000001F802440244034405F
:100B5000038000003000200027C038002000000083
:100B60001B802440244024401B8000001C0022C025
:100B7000224022401F8000000000000008400000CA
:100B80000000000000000000046000000000000001
:100B9000000004000A001100208040400900090004
:100BA00009000900090000000000404020801100F9
:100BB0000A00040018002000234024001800000050
:100BC0001F802040274029401F400000004007C0F0
:100BD00039000F0001C0004020403FC024402440A5
:100BE0001B8000001F8020402040204030800000FB
:100BF00020403FC0204020401F80000020403FC0D8
:100C000024402E4030C0000020403FC024402E0031
:100C1000300000000F00108020402240338002008E
:100C200020403FC0040004003FC02040204020403E
:100C30003FC02040204000000060202020203FC016
:100C40002000200020403FC024400B0030C0204046
:100C500020403FC020400040004000C03FC03C005A
:100C600003C03C003FC0000020403FC00C402300B8
:100C70003FC020001F802040204020401F800000F7
:100C800020403FC024402400180000001F80214065
:100C9000214020E01FA0000020403FC0244026004B
:100CA00019C0004018C02440244022403180000078
:100CB000300020403FC020403000000020003F8036
:100CC000004000403F80200020003E0001C007009F
:100CD00038002000380007C03C0007C03800000082
:100CE000204039C0060039C02040000020003840B4
:100CF00007C0384020000000304021C02640384066
:100D000020C00000000000007FE0402040200000E4
:100D1000000070000C000380004000000000402034
:100D200040207FE000000000000020004000200084
:100D30000000000000100010001000100010001053
:100D400000000000400000000000000000000280E1
:100D50000540054003C0004020003FC0044004405F
:100D600003800000000003800440044006400000AF
:100D700000000380044024403FC000400000038086
:100D80000540054003400000000004401FC024400F
:100D900024402000000002E00550055006500420C9
:100DA00020403FC00440040003C000400000044055
:100DB00027C000400000000000100010041027E0D1
:100DC0000000000020403FC00140070004C0044074
:100DD000204020403FC000400040000007C0040009
:100DE00007C0040003C00000044007C00440040022
:100DF00003C0004000000380044004400380000062
:100E0000041007F004500440038000000000038039
:100E10000440045007F00010044007C002400400E2
:100E200004000000000006400540054004C000002A
:100E3000000004001F800440004000000400078000
:100E40000040044007C000400400070004C00180C7
:100E500006000400060001C0070001C006000000F3
:100E6000044006C0010006C0044000000410071042
:100E700004E00180060004000000044005C00640B4
:100E8000044000000000000004007BE0402000005F
:100E9000000000000000FFF0000000000000402003
:100EA0007BE00400000000004000800040002000C3
:100EB00020004000000000000000000000000000D2
:100EC000000000000000000000001FCC000C00002B
:100ED0000000000000000800300060000800300042
:100EE00060000000022003FC1E20022003FC1E20E4
:100EF0000220000000000E1811043FFF10840C783F
:100F0000000000000F0010840F3800C0077818841C
:100F10000078000000780F8410C411240E9800E4BB
:100F20000084000808006800700000000000000055
:100F30000000000000000000000007E01818200476
:100F400040020000000040022004181807E00000E2
:100F5000000000000240024001800FF001800240CA
:100F6000024000000080008000800FF800800080B8
:100F7000008000000001000D000E000000000000D5
:100F800000000000000000800080008000800080E1
:100F9000008000800000000C000C00000000000039
:100FA000000000000000000600180060018006003C
:100FB00018002000000007F00808100410040808BA
:100FC00007F000000000080408041FFC00040004EF
:100FD0000000000000000E0C1014102410441184B6
:100FE0000E0C000000000C181004110411041288EB
:100FF0000C700000000000E00320042408241FFC03
:101000000024000000001F981084110411041088AF
:1010100010700000000007F00888110411041888FF
:101020000070000000001C00100010FC13001C00E9
:101030001000000000000E38114410841084114488
:101040000E38000000000700088C10441044088887
:1010500007F00000000000000000030C030C00007B
:101060000000000000000000000101060000000078
:101070000000000000000080014002200410080869
:101080001004000002200220022002200220022080
:101090000220000000001004080804100220014093
:1010A0000080000000000E001200100C106C108078
:1010B0000F00000003E00C1813E4142417C40828E0
:1010C00007D000000004003C03C41C40074000E4BB
:1010D000001C000410041FFC1104110411040E88EC
:1010E0000070000003E00C18100410041004100835
:1010F0001C10000010041FFC100410041004080849
:1011000007F0000010041FFC1104110417C41004A0
:101110000818000010041FFC1104110017C0100073
:101120000800000003E00C181004100410441C78A0
:101130000040000010041FFC108400800080108418
:101140001FFC10040000100410041FFC1004100405
:101150000000000000030001100110011FFE10003C
:101160001000000010041FFC110403801464181CFC
:101170001004000010041FFC10040004000400040C
:10118000000C000010041FFC1F0000FC1F001FFCCF
:101190001004000010041FFC0C04030000E01018F1
:1011A0001FFC100007F008081004100410040808C1
:1011B00007F0000010041FFC1084108010801080C5
:1011C0000F00000007F0081810241024101C080A53
:1011D00007F2000010041FFC1104110011C01130AF
:1011E0000E0C000400000E1C110410841084104426
:1011F0001C3800001800100010041FFC1004100020
:101200001800000010001FF810040004000410046F
:101210001FF8100010001E0011E0001C0070138069
:101220001C0010001FC0103C00E01F0000E0103C3C
:101230001FC000001004180C163401C001C0163481
:10124000180C100410001C00130400FC13041C00F4
:10125000100000000804101C1064108413041C0407
:10126000101800000000000000007FFE4002400255
:1012700040020000000030000C0003800060001CF1
:101280000003000000004002400240027FFE000018
:10129000000000000000000020004000400040006E
:1012A0002000000000010001000100010001000118
:1012B000000100010000400040002000000000008C
:1012C0000000000000000098012401440144014492
:1012D00000FC000410001FFC0088010401040088C9
:1012E0000070000000000070008801040104010487
:1012F000008800000000007000880104010411084B
:101300001FFC0004000000F80144014401440144B2
:1013100000C800000000010401040FFC11041104C6
:1013200011001800000000D601290129012901C976
:101330000106000010041FFC0084010001000104EC
:1013400000FC000400000104190419FC000400045E
:10135000000000000000000300010101190119FE56
:101360000000000010041FFC0024004001B4010C28
:10137000010400000000100410041FFC000400041D
:1013800000000000010401FC0104010001FC010453
:10139000010000FC010401FC0084010001000104C3
:1013A00000FC0004000000F8010401040104010431
:1013B00000F80000010101FF00850104010400881C
:1013C00000700000000000700088010401040105A5
:1013D00001FF00010104010401FC0084010401007B
:1013E00001800000000000CC01240124012401241C
:1013F0000198000000000100010007F80104010449
:1014000000000000010001F80004000400040108CD
:1014100001FC0004010001800170000C001001605B
:101420000180010001F0010C003001C00030010C0E
:1014300001F0010000000104018C00740170018CB6
:1014400001040000010101810171000E001801601A
:101450000180010000000184010C01340144018479
:10146000010C0000000000000000000001003EFC34
:10147000400240020000000000000000FFFF0000EA
:10148000000000000000400240023EFC010000009D
:10149000000000000000600080008000400040006C
:1014A00020002000C41400080000002018000000E4
:1014B0006A090008DC140008180000200008000079
:1014C0007A09000800A24A040000000000000000A1
:0C14D000010203040607080900000000E8
:04000005080000ED02
:00000001FF
