:020000040800F2
:100000009008002001010008E505000839050008F6
:10001000E10500088D030008A31800080000000097
:10002000000000000000000000000000D90D0008E2
:100030009103000800000000090A0008A912000846
:100040001B0100081B0100081B0100081B01000820
:100050001B0100081B0100081B0100081B01000810
:100060001B0100081B0100081B0100081B01000800
:100070001B0100081B0100081B0100081B010008F0
:100080001B0100081B0100081B0100081B010008E0
:100090001B0100081B0100081B0100081B010008D0
:1000A0001B0100081B0100081B0100081B010008C0
:1000B0000D1300081B0100081B0100081B010008AC
:1000C0001B0100081B0100081B0100081B010008A0
:1000D0001B010008611600081B01000891160008AA
:1000E0001B0100081B0100081B010008DFF80CD0F1
:1000F00000F034F900480047551900089008002026
:100100000648804706480047FEE7FEE7FEE7FEE7B1
:10011000FEE7FEE7FEE7FEE7FEE7FEE7AD120008BA
:10012000ED000008F0B480EA0102D40F4200B2EB07
:10013000410F02D20246084611464A0042D0C30D82
:10014000DDB2C1F3C752AD1A202D35DAC1F3160165
:1001500041F4000204B15242C5F1200602FA06F150
:100160002A411044B3EBD05F23D0C4B1012DA0EBE2
:10017000C35009DCF0BC4FF0004202EAC352DBB2CC
:1001800000F5000000F0BCB8400000F1807000EB0A
:10019000C350A0F1807040EAD170490009E04908DD
:1001A00041EAC071A0EBC35000F50000400800EB2D
:1001B000C350F0BC00F09BB86142012202EB410148
:1001C000001BF6E7F0BC704781F00041AAE780F021
:1001D0000040A7E780EA010210B502F000434000AA
:1001E00022D04A001FD0010E01EB1261C0F356006D
:1001F000C2F3560240F4000042F40002A0FB0220C9
:1002000000047F39140400D0401C50EA124001D48D
:100210004000491EC2B20C0604EBD010401C40083E
:10022000802A02D003E0002010BD20F00100002948
:1002300000DA0020184310BD30B480EA010202F059
:10024000004530F0004221F0004013D090B1C30DC2
:10025000D40DC2F31601C0F31600E41A41F40001F4
:1002600040F400027D34914201D3641C00E0490057
:10027000002C02DA30BC002070474FF4000000234D
:10028000914201D3891A034340084FEA4101F7D153
:1002900051B1914202D14FF0004105E002D24FF03E
:1002A000010101E06FF0010103EBC450284430BCB0
:1002B00000F01DB8C10F80EAE0700844CA07962319
:1002C000002100F01DB820F00040C10DC0F3160061
:1002D00040F400007F2901DA00207047962903DCF2
:1002E000C1F19601C840704796398840704700298F
:1002F000A8BF7047401C490008BF20F001007047AC
:1003000010B4B0FA80FC00FA0CF050EA010404BF0B
:1003100010BC704749B1CCF1200421FA04F411FA61
:100320000CF118BF012121430843A3EB0C01CB1DA5
:100330004FEA00614FEA102042BF002010BC704716
:1003400000EBC35010440029A4BF10BC7047401CF0
:10035000490008BF20F0010010BC7047064C074D53
:1003600006E0E06840F0010394E807009847103485
:10037000AC42F6D3FFF7BEFED4240008F4240008F4
:10038000014908607047000000860D4200BFFEE78B
:1003900070472DE9F0410246002500260020002389
:1003A0000024002791F803C00CF00F0591F803C05A
:1003B0000CF0100CBCF1000F03D091F802C04CEA15
:1003C000050591F800C0BCF1000F31D01468002081
:1003D0002BE04FF0010C0CFA00F3B1F800C00CEA6E
:1003E00003069E4220D183004FF00F0C0CFA03F756
:1003F000BC4305FA03FC4CEA040491F803C0BCF1C9
:10040000280F06D14FF0010C0CFA00FCC2F814C002
:100410000AE091F803C0BCF1480F05D14FF0010C80
:100420000CFA00FCC2F810C0401C0828D1D314609C
:10043000B1F800C0BCF1FF0F34DD546800202EE09D
:1004400000F1080C4FF0010808FA0CF3B1F800C0F5
:100450000CEA03069E4221D183004FF00F0C0CFAE8
:1004600003F7BC4305FA03FC4CEA040491F803C00B
:10047000BCF1280F05D100F1080C08FA0CF8C2F8FD
:10048000148091F803C0BCF1480F07D100F1080CAB
:100490004FF0010808FA0CF8C2F81080401C082838
:1004A000CED35460BDE8F081F0B50A4600230024A5
:1004B0000021002500F00046B6F1004F02D11D4E8C
:1004C000F16901E01B4E7168C0F3034583B200F48B
:1004D0004016B6F5401F08D121F07061154E7668C0
:1004E00026F07066134F7E6012E000F48016B6F5B9
:1004F000801F06D1032606FA05F4A14341F070617E
:1005000006E0460D360103FA06F6B14341F070618C
:1005100022B1460D360103FA06F6314300F00046DB
:10052000B6F1004F02D1034EF16101E0014E71605E
:10053000F0BD00000000014000BFFEE700B5002054
:1005400015490861C8601420486100208861C861AD
:100550000846006840F001000860084640680F49FE
:1005600008400D494860084600680D4908400A499E
:1005700008600846006820F480200860084640684B
:1005800020F4FE0048600020886000214FF00060E9
:1005900000F01CF800BD0000001002400000FFF851
:1005A000FFFFF6FE0146072323EA01021202054B74
:1005B00018684FF6FF031840034B18431043014BD4
:1005C000186070470CED00E00000FA05024A0A408E
:1005D0000243024B1A60704780FFFF1F08ED00E0E6
:1005E00000BFFEE77047000070B5002100230F2216
:1005F000C47804B3154C246804F4E064C4F5E064E2
:10060000210AC1F10403CA40447804FA03F1847852
:100610001440214309010E4C0678A155047804F0DA
:100620001F050124AC4005786D11AD0005F1E025F2
:10063000C5F8004109E0047804F01F050124AC402E
:10064000044D0678761145F8264070BD0CED00E0AB
:1006500000E400E080E100E002490143024A116049
:10066000704700000000FA050CED00E030B50024F2
:100670000CE0002506E00020074901EBC501085504
:10068000681CC5B2802DF6DB601CC4B2082CF0DB00
:1006900000F0ECF830BD00008C000020F0B51446EE
:1006A00000267F2801DC3F2900DDF0BD0B46CF1777
:1006B00001EB5777FF10C7F10707FAB2CF1701EB2D
:1006C0005777FF10A1EBC707FDB2C5F1070701235C
:1006D000BB40DEB24CB10A4B03EBC0039B5C33431F
:1006E000074F07EBC007BB5408E0054B03EBC00303
:1006F0009B5CB343024F07EBC007BB5400BFD4E77A
:100700008C00002008B50121082000F023FA012107
:10071000084600F01FFA01214F48FFF7C5FE3820B8
:10072000ADF8000010208DF8030002208DF80200C3
:1007300069464A48FFF72DFE0121042000F00AFA1D
:100740004FF40040ADF8000002208DF802001020A8
:100750008DF8030069464248FFF71BFE012000F0B8
:100760004DF9002000F070FA0020FFF709FE00208C
:1007700000F044F900203B490860642001F0C4F80F
:1007800001203949C1F88C010021AE2000F00AF99E
:100790000021D52000F006F90021502000F002F9D8
:1007A0000021A82000F0FEF800213F2000F0FAF818
:1007B0000021D32000F0F6F80021084600F0F2F8FE
:1007C0000021402000F0EEF800218D2000F0EAF832
:1007D0000021142000F0E6F80021202000F0E2F8CB
:1007E0000021022000F0DEF80021A12000F0DAF85C
:1007F0000021C02000F0D6F80021DA2000F0D2F865
:100800000021122000F0CEF80021812000F0CAF86B
:100810000021EF2000F0C6F80021D92000F0C2F836
:100820000021F12000F0BEF80021DB2000F0BAF832
:100830000021302000F0B6F80021A42000F0B2F82A
:100840000021A62000F0AEF80021AF2000F0AAF8A9
:10085000FFF70CFF08BD000000023000000C014053
:10086000000801408C8121420080214230B50024E3
:100870001CE004F1B001C8B2002100F093F800219F
:10088000084600F08FF80021102000F08BF80025BA
:1008900008E0084901EBC501085D012100F082F87C
:1008A000681CC5B2802DF4DB601CC4B2082CE0DBF0
:1008B00030BD00008C0000202DE9F04F80460C4632
:1008C00015461E46A346A5F12000C5B200273EE00E
:1008D0000C2E07D105EB45001F4901EB800010F8F5
:1008E000079004E01D4800EB051010F807904FF04A
:1008F000000A26E009F0800028B121464046099A06
:10090000FFF7CCFE09E0099808B9012000E00020BB
:10091000024621464046FFF7C1FE4FEA49604FEAD2
:100920001069601CC4B2A4EB0B00B04205D15C4658
:1009300008F1010000F0FF0806E00AF1010000F0F4
:10094000FF0ABAF1080FD5DB00BF781CC7B2B74267
:10095000BEDBBDE8F08F00006E1A0008E21E000842
:10096000F8B504460D4616461F460C2005EB8502D9
:100970005206110EC4EBC4020090D0B23B46324680
:1009800000F0CAFBF8BD70B504460D46164605EBEF
:1009900085025206110EC4EBC402D0B2324600F0FA
:1009A00005FC70BD10B50A461AB10123114C236035
:1009B00002E000230F4C2360002114E000230E4CC2
:1009C000236000F080031BB10123241F236003E098
:1009D0000023094C241F23600123074C2360430696
:1009E000180E4B1CD9B20829E8DB0123014C236007
:1009F00010BD0000BC0121429481214201490862DE
:100A00007047000000000E42704700002DE9F047DB
:100A100004460D4629462046FFF7D9FB1E49C8600B
:100A20000A46D1685069FFF77DFB1B4948610A46B9
:100A30009169D068FFF7C8FB81461748816848462E
:100A4000FFF7C8FB80461549FFF7F6FB0646124A3A
:100A500051695068FFF7BEFB82461049FFF7ECFB77
:100A600080460D4AD1681068FFF7B4FB82460B49F7
:100A7000FFF7E2FB81464146FFF754FB074631464C
:100A8000FFF750FB044908610846C06888610846C2
:100A90000069BDE8F08700002C0000200000C8427B
:100AA0002DE9F04704460D4629462046FFF78FFB07
:100AB0001E49C8600A46D1685069FFF733FB1B49DD
:100AC00048610A469169D068FFF77EFB8146174866
:100AD00081684846FFF77EFB80461549FFF7ACFB6F
:100AE0000646124A51695068FFF774FB8246104966
:100AF000FFF7A2FB80460D4AD1681068FFF76AFB3A
:100B000082460B49FFF798FB81464146FFF70AFBF7
:100B100007463146FFF706FB044908610846C068EE
:100B2000886108460069BDE8F087000048000020A1
:100B30000000C84229B1064AD2690243044BDA6177
:100B400004E0034AD2698243014BDA617047000036
:100B50000010024029B1064A92690243044B9A618F
:100B600004E0034A92698243014B9A617047000096
:100B70000010024030B500210022002400232D4D3A
:100B80006D6805F00C0121B1042905D0082923D195
:100B900005E0294D056022E0274D05601FE0254D49
:100BA0006D6805F47012234D6D6805F480340225DC
:100BB00005EB92421CB9214D554305600BE01D4DDC
:100BC0006D6805F400351DB11C4D5543056002E00C
:100BD000194D5543056002E0174D056000BF00BF89
:100BE000144D6D6805F0F0010909154D6B5C056841
:100BF000DD4045600F4D6D6805F4E061090A104D58
:100C00006B5C4568DD4085600A4D6D6805F4605198
:100C1000C90A0B4D6B5C4568DD40C560054D6D68CC
:100C200005F44041890B074D6B5CC568B5FBF3F5D6
:100C3000056130BD0010024000127A0000093D003D
:100C4000140000202400002000210B4A11700A4AE1
:100C5000203A82F82010012802D0042808D103E0AD
:100C60000121054A117004E00521034A117000E0DA
:100C700000BF00BF70470000201002402DE9F04186
:100C8000044651480078072841D2DFE800F0040C00
:100C9000141C242C3400AA2C04D14B480078401C8E
:100CA0004949087037E04948047047480078401CBB
:100CB000454908702FE04548447043480078401C7F
:100CC0004149087027E0414884703F480078401C43
:100CD0003D4908701FE03D48C4703B480078401C07
:100CE0003949087017E03948047137480078401CCA
:100CF000354908700FE0552C05D133480078401C69
:100D00003149087002E000202F49087003E00020FC
:100D10002D49087000BF00BF2B480078072850D12C
:100D20002A490978294AD2781144284A527811442C
:100D3000264A9278881825490979C21700EB126271
:100D40001212A0EB022291423BD1204840781F4969
:100D5000097840EA012006B21C48C0781B4989780E
:100D600040EA012007B2C6F30E00FFF7A3FA80465F
:100D700006F4004008B188F00048C7F30E00FFF702
:100D800099FA054607F4004008B185F00045414650
:100D90000F480068FFF7C6F90D49086029460D485D
:100DA0000068FFF7BFF90B490860002003E000214D
:100DB000064A1154401C0528F9DB0020024908703E
:100DC00000BFBDE8F08100006C0000206D00002035
:100DD00064000020680000207047000010B586B055
:100DE000044601218804FFF7A5FE01210820FFF732
:100DF000B1FE18208DF817004FF48060ADF8140094
:100E000003208DF8160005A91F48FFF7C2FA4820F5
:100E10008DF817004FF40060ADF8140003208DF832
:100E2000160005A91848FFF7B4FA01940020ADF8A0
:100E300010000C20ADF80E000020ADF80C00ADF84D
:100E40000A00ADF8080001A9104800F0B5FC012225
:100E500040F225510D4800F089FC4FF4A060FFF7E7
:100E6000FBFB27208DF8000001208DF803008DF892
:100E700001008DF802006846FFF7B6FB0121034828
:100E800000F031FC06B010BD000C014000480040ED
:100E900010B504462146054800F0FFFC00BF802144
:100EA000024800F02CFC0028F9D010BD004800409A
:100EB00010B586B0044601218803FFF74BFE0121DF
:100EC0000420FFF747FE18208DF817004FF400703C
:100ED000ADF8140003208DF8160005A91F48FFF790
:100EE00058FA48208DF817004FF48060ADF81400D0
:100EF00003208DF8160005A91848FFF74AFA019457
:100F00000020ADF810000C20ADF80E000020ADF868
:100F10000C00ADF80A00ADF8080001A9104800F077
:100F20004BFC012240F225510D4800F01FFC4FF40C
:100F3000A060FFF791FB25208DF8000001208DF8BF
:100F400003008DF801008DF802006846FFF74CFBA6
:100F50000121034800F0C7FB06B010BD00080140A6
:100F60000038014010B504462146054800F095FCC4
:100F700000BF8021024800F0C2FB0028F9D010BD5C
:100F80000038014000B589B001210220FFF7D2FDF1
:100F900001210820FFF7DEFD0320ADF82000182016
:100FA0008DF8230003208DF8220008A91E48FFF7C2
:100FB000F0F949F63F40ADF818002320ADF81400D1
:100FC0000020ADF81A00ADF8160005A9174800F08A
:100FD000F5FA6020ADF804000120ADF8060000200D
:100FE000ADF80C0040F6B830ADF80A0001A90F4882
:100FF00000F03AFA08210D4800F086FA40F6B830C1
:10100000ADF80A0001A9094800F088FA082107484C
:1010100000F0C2FA0121054800F0F1F9012103486E
:1010200000F0FCF909B000BD000C014000040040D4
:1010300010B500F001F810BD0CB500200190009033
:101040003348006840F480303149086000BF3048C0
:10105000006800F4003000900198401C0190009856
:1010600018B90198B0F5A06FF1D12948006800F4D3
:10107000003010B10120009001E0002000900098A5
:10108000012843D12348006840F01000214908603E
:101090000846006820F0030008600846006840F039
:1010A000020008601A4840681949486008464068CC
:1010B00048600846406840F48060486008464068E0
:1010C00020F47C1048600846406840F4E81048600E
:1010D0000846006840F08070086000BF0C48006857
:1010E00000F000700028F9D00948406820F00300A3
:1010F000074948600846406840F00200486000BF69
:101100000348406800F00C000828F9D10CBD00002D
:1011100000100240002002402DE9FF4F81B0074639
:1011200091461E460E9D4FF0000A002439E0301B08
:10113000401EC1B20A2000F08FFCB9FBF0F00A217A
:10114000B0FBF1F201FB1208BAF1000F16D1701ECC
:10115000A04213DDB8F1000F0ED10120AB4605EB24
:10116000DB71491001FB04710090C8B22B462022AC
:101170000299FFF7A1FB12E04FF0010A0120AB46F4
:1011800005EBDB71491001FB04710090C8B208F156
:101190003001CAB22B460299FFF78EFB00BF601CDC
:1011A000C4B2B442C3DB05B0BDE8F08F78B50546E4
:1011B0000E46144618E07A2D03DD002506F11000D6
:1011C000C6B23A2E04DD002005460646FFF74EFA69
:1011D0000120009022780C2331462846FFF76CFB53
:1011E00005F10800C5B2641C20780028E3D178BD61
:1011F00030B504460025FFF7A1F91F48006840F408
:1012000080301D49086000BF1B480068400C002862
:10121000FAD04FF4806018494860A01EC4B2084656
:10122000406840EA844048600846406840F48030A6
:1012300048601248006840F03200104908600E48CB
:10124000006840F080700C49086000BF0A480068E0
:10125000400E0028FAD00848406840F002000649D5
:10126000486005E004484068C0F3870505F00305C1
:10127000022DF7D130BD00000010024000200240D6
:10128000042808D14FF0E021096941F004014FF032
:10129000E022116107E04FF0E021096921F004012B
:1012A0004FF0E022116170477047000010B51348FD
:1012B000006840F001001149086008464068104984
:1012C00008400E494860084600680E4908400B492E
:1012D00008600846006820F48020086008464068DE
:1012E00020F4FE0048604FF41F008860FFF7A0FE66
:1012F0004FF000600449086010BD0000001002407B
:101300000000FFF8FFFFF6FE08ED00E010B5012138
:10131000880700F08FF8A8B31B4801681B480068D5
:10132000FFF774FB1A4908601A4801681A480068F8
:10133000FFF7B6FB194908601548016813480068B3
:10134000FEF7F0FE11490860144801681248006871
:10135000FEF7E8FE104908600C480068FEF7B3FF8E
:1013600084B221460E4800F024F90B480068FEF7CD
:10137000AAFF84B221460A4800F01DF9012188071E
:1013800000F049F810BD0000640000207C0000203F
:1013900074000020680000208000002078000020F9
:1013A000000400401FB501210846FFF7C3FB63207E
:1013B000ADF8080041F61F40ADF804000020ADF87C
:1013C0000A00ADF8060001A94FF0804000F0F6F8E1
:1013D00001221146900700F03EF81C208DF8000015
:1013E00001208DF801008DF802008DF80300684699
:1013F000FFF7FAF80121880700F010F81FBD21B1AE
:10140000028842F08002028004E002884FF67F7377
:101410001A4002807047CA430282704721B1028895
:1014200042F00102028004E002884FF6FE731A4087
:101430000280704730B50246002000230024158A40
:1014400005EA0103958905EA010413B10CB10120F5
:1014500000E0002030BD1AB183890B43838102E094
:1014600083898B438381704770B500240022002359
:10147000058C4FF6FF6635400584028C8388848B8B
:101480004FF68F752C404FF6FC752C400D882C4381
:101490004FF6FF552A400D894FF6FF7606EA0525DF
:1014A0002A434D8806EA05252A43154DA84202D055
:1014B000144DA8421DD14FF2FF752A404D894FF6B9
:1014C000FF7606EA05252A434FF6FF352A408D8828
:1014D00006EA05252A434EF6FF752B404DF6FF75AB
:1014E0002B408D8906EA05152B43CD8906EA0515A3
:1014F0002B4383808483CD888587028470BD000060
:10150000002C0140003401400A460021818B4FF637
:10151000F7731940114381837047000070B50022B2
:1015200000230024058C4EF6FF7635400584038C9D
:101530008488828B48F6FF752A404FF6FF452A4083
:101540000D884FF6FF7606EA05252A434DF6FF750E
:101550002B400D8906EA05352B434D8806EA0535F3
:101560002B430B4DA84202D00A4DA84208D14BF69E
:10157000FF752C408D894FF6FF7606EA85152C43C2
:1015800084808283CD88A0F84050038470BD000021
:10159000002C0140003401400A460021818B4FF2AB
:1015A000FF7319404FF6FF7303EA02231943818347
:1015B000704781877047A0F840107047002202886A
:1015C0001D4B98420ED01D4B98420BD0B0F1804F6E
:1015D00008D01B4B984205D01A4B984202D01A4BA8
:1015E000984204D14FF68F731A404B881A43174B19
:1015F000984207D0164B984204D04FF6FF431A404A
:10160000CB881A4302808B8883850B8803850A4B1D
:1016100098420BD0094B984208D00E4B984205D007
:101620000D4B984202D00D4B984201D10B7A0386A4
:101630000123838270470000002C014000340140E8
:101640000004004000080040000C00400010004072
:1016500000140040004001400044014000480140A7
:1016600010B540F22551094800F056F801280CD178
:10167000064800F00DF9C4B22046FFF773FC40F2B3
:101680002551024800F020F800BF10BD003801408D
:1016900010B540F225510B4800F03EF801280FD15B
:1016A000084800F0F5F8C4B22046FFF7F1FB2046E9
:1016B000FFF7E4FA40F22551024800F005F800BFB8
:1016C00010BD00000048004010B50022002340F685
:1016D0006A14A14200D100BF0A1201249440A3B2AF
:1016E000DC43048010BD21B1828942F40052828122
:1016F00004E082894DF6FF731A40828170470246EA
:101700000020B1F5007F00D100BF13880B400BB162
:10171000012000E00020704770B50246002400233D
:101720000025002040F66A16B14200D100BFC1F387
:10173000421501F01F03012606FA03F3012D02D121
:101740009689334006E0022D02D1168A334001E02B
:10175000968A33400C12012606FA04F416883440A7
:1017600013B10CB1012000E0002070BDF0B50346BC
:10177000002400260025002040F66A17B94200D157
:1017800000BF1846C1F3421401F01F06012707FAF3
:1017900006F5012C01D10C3004E0022C01D11030EF
:1017A00000E014301AB107682F43076002E00768B1
:1017B000AF430760F0BD00002DE9F04786B0054655
:1017C0000E460024A24600BFA1460027B08900B102
:1017D00000BF2F462C8A4CF6FF700440F08804436B
:1017E0002C82AC894EF6F3100440B088318908434E
:1017F000718908430443AC81AC8A4FF6FF40044032
:10180000B0890443AC8201A8FFF7B4F91F488742AE
:1018100002D1DDF810A001E0DDF80CA0A88900F4E9
:10182000004040B10AEBCA0000EB0A1031684900E1
:10183000B0FBF1F807E00AEBCA0000EB0A103168D0
:101840008900B0FBF1F86420B8FBF0F00401200936
:10185000642101FB1089A88900F4004040B13220C6
:1018600000EBC900B0FBF1F000F00700044308E012
:10187000322000EB09106421B0FBF1F000F00F0002
:1018800004432C8106B0BDE8F08700000038014019
:1018900001468888C0F308007047C1F308028280BF
:1018A000704700BFFEE702E008C8121F08C1002A07
:1018B000FAD170477047002001E001C1121F002AD1
:1018C000FBD1704710B56FF00400FFF7D9FC0A4850
:1018D00000680A49B0FBF1F0094908700846007831
:1018E00000EB4001C1EBC0104FF6FF7101EAC000F0
:1018F0000449088010BD00000000002000127A009A
:10190000280000202A0000200146114A12884A437C
:101910004FF0E0235A6100229A611A46126942F0A0
:1019200001021A6100BF4FF0E022106900F00102CD
:101930001AB100F48032002AF5D04FF0E02212698B
:1019400022F001024FF0E0231A6100229A617047F1
:101950002A0000200220FEF725FE0920FFF748FCA0
:10196000FFF7B0FF4FF4E130FFF7A2FA4FF4E13098
:10197000FFF734FAFFF706FB00212A48FFF719FEAC
:1019800000212848FFF717FEFFF70CFDFEF7BAFE0F
:1019900047E00A20FFF7B8FF23A200210846FEF720
:1019A000F2FF22A201210020FEF7EDFF204800688F
:1019B000FEF789FC04460423224600210220FEF79C
:1019C000CFFF1C480068FEF77EFC04460423224635
:1019D00001210220FEF7C4FF17A203210020FEF719
:1019E000D2FF18A204210020FEF7CDFF184800689E
:1019F000FEF769FC04460423224603210A20FEF771
:101A0000AFFF14480068FEF75EFC0446042322463C
:101A100019460A20FEF7A4FFFEF728FF0A20FFF769
:101A200073FFB6E700040040583A0000593A00003E
:101A30006400002068000020506F736974696F6E45
:101A4000313A0000506F736974696F6E323A00006A
:101A50007C0000208000002010B50246012000E03C
:101A600050430B1EA1F10104E1B2F9D110BD0000F9
:101A700000000000000000000000000000003F40E7
:101A80000000000000000000300040003000400076
:101A9000000009000BC03D000BC03D00090018C04C
:101AA00024407FE0224031800000180024C01B0049
:101AB0000D803240018003801C4027401C8007407D
:101AC0000040100060000000000000000000000066
:101AD000000000001F8020404020000040202040E7
:101AE0001F8000000000090006001F80060009009A
:101AF0000000040004003F80040004000000001007
:101B00000060000000000000000004000400040069
:101B1000040004000000000000400000000000007D
:101B20000000002001C006003800400000001F80B7
:101B30002040204020401F800000000010403FC097
:101B400000400000000018C02140224024401840FE
:101B5000000010802040244024401B800000020030
:101B60000D0011003FC0014000003C802440244093
:101B70002440238000001F80244024403440038000
:101B800000003000200027C03800200000001B802B
:101B90002440244024401B8000001C0022C022401E
:101BA00022401F80000000000000084000000000EC
:101BB00000000000000004600000000000000000C1
:101BC00004000A00110020804040090009000900BB
:101BD00009000900000000004040208011000A00B8
:101BE00004001800200023402400180000001F807B
:101BF0002040274029401F400000004007C0390016
:101C00000F0001C0004020403FC0244024401B8002
:101C100000001F80204020402040308000002040F5
:101C20003FC0204020401F80000020403FC0244093
:101C30002E4030C0000020403FC024402E00300025
:101C400000000F001080204022403380020020401E
:101C50003FC0040004003FC02040204020403FC05F
:101C60002040204000000060202020203FC02000B5
:101C7000200020403FC024400B0030C020402040C6
:101C80003FC020400040004000C03FC03C0003C0B7
:101C90003C003FC0000020403FC00C4023003FC03C
:101CA00020001F802040204020401F800000204056
:101CB0003FC024402400180000001F802140214024
:101CC00020E01FA0000020403FC02440260019C093
:101CD000004018C0244024402240318000003000E1
:101CE00020403FC020403000000020003F800040E6
:101CF00000403F80200020003E0001C00700380067
:101D00002000380007C03C0007C038000000204019
:101D100039C0060039C0204000002000384007C00C
:101D2000384020000000304021C02640384020C00C
:101D30000000000000007FE0402040200000000084
:101D400070000C0003800040000000004020402094
:101D50007FE00000000000002000400020000000A4
:101D60000000001000100010001000100010000013
:101D7000000040000000000000000000028005405C
:101D8000054003C0004020003FC0044004400380E1
:101D900000000000038004400440064000000000F2
:101DA0000380044024403FC0004000000380054001
:101DB000054003400000000004401FC024402440B0
:101DC0002000000002E0055005500650042020408D
:101DD0003FC00440040003C000400000044027C08E
:101DE00000400000000000100010041027E0000078
:101DF000000020403FC00140070004C004402040D4
:101E000020403FC000400040000007C0040007C061
:101E1000040003C00000044007C00440040003C0E5
:101E200000400000038004400440038000000410D0
:101E300007F00450044003800000000003800440C9
:101E4000045007F00010044007C0024004000400E2
:101E50000000000006400540054004C000000000EE
:101E600004001F8004400040000004000780004080
:101E7000044007C000400400070004C001800600C1
:101E80000400060001C0070001C006000000044075
:101E900006C0010006C0044000000410071004E062
:101EA0000180060004000000044005C00640044014
:101EB00000000000000004007BE040200000000063
:101EC00000000000FFF000000000000040207BE068
:101ED00004000000000040008000400020002000BE
:101EE00040000000000000000000000000000000B2
:101EF00000000000000000001FCC000C00000000EB
:101F000000000000080030006000080030006000A1
:101F10000000022003FC1E20022003FC1E200220E1
:101F2000000000000E1811043FFF10840C78000020
:101F300000000F0010840F3800C007781884007864
:101F4000000000780F8410C411240E9800E400846F
:101F50000008080068007000000000000000000099
:101F6000000000000000000007E0181820044002F4
:101F70000000000040022004181807E000000000E4
:101F800000000240024001800FF001800240024048
:101F900000000080008000800FF80080008000803A
:101FA00000000001000D000E000000000000000015
:101FB0000000000000800080008000800080008021
:101FC00000800000000C000C000000000000000079
:101FD00000000000000600180060018006001800E4
:101FE0002000000007F0080810041004080807F09B
:101FF00000000000080408041FFC000400040000A6
:10200000000000000E0C10141024104411840E0C5B
:10201000000000000C1810041104110412880C7048
:102020000000000000E00320042408241FFC00241A
:10203000000000001F981084110411041088107013
:102040000000000007F008881104110418880070CF
:10205000000000001C00100010FC13001C00100009
:10206000000000000E3811441084108411440E3812
:10207000000000000700088C10441044088807F096
:102080000000000000000000030C030C0000000032
:102090000000000000000001010600000000000038
:1020A0000000000000800140022004100808100415
:1020B0000000022002200220022002200220022032
:1020C00000000000100408080410022001400080F5
:1020D000000000000E001200100C106C10800F00A9
:1020E000000003E00C1813E4142417C4082807D0D8
:1020F00000000004003C03C41C40074000E4001C36
:10210000000410041FFC1104110411040E88007057
:10211000000003E00C1810041004100410081C1038
:10212000000010041FFC100410041004080807F03D
:10213000000010041FFC1104110417C41004081837
:10214000000010041FFC1104110017C0100008004B
:10215000000003E00C181004100410441C78004028
:10216000000010041FFC10840080008010841FFCFD
:1021700010040000100410041FFC100410040000E0
:10218000000000030001100110011FFE10001000EC
:10219000000010041FFC110403801464181C1004B8
:1021A000000010041FFC1004000400040004000CD4
:1021B000000010041FFC1F0000FC1F001FFC100487
:1021C000000010041FFC0C04030000E010181FFCAA
:1021D000100007F00808100410041004080807F0A5
:1021E000000010041FFC10841080108010800F006D
:1021F000000007F0081810241024101C080A07F229
:10220000000010041FFC1104110011C011300E0C4D
:10221000000400000E1C11041084108410441C38AB
:1022200000001800100010041FFC1004100018001B
:10223000000010001FF810040004000410041FF830
:10224000100010001E0011E0001C007013801C0024
:1022500010001FC0103C00E01F0000E0103C1FC039
:1022600000001004180C163401C001C01634180CFC
:10227000100410001C00130400FC13041C001000C8
:1022800000000804101C1064108413041C041018AF
:1022900000000000000000007FFE400240024002FB
:1022A0000000000030000C0003800060001C0003F0
:1022B000000000004002400240027FFE00000000DB
:1022C000000000000000200040004000400020000E
:1022D00000000001000100010001000100010001F7
:1022E000000100004000400020000000000000004D
:1022F000000000000098012401440144014400FC56
:10230000000410001FFC0088010401040088007014
:10231000000000000070008801040104010400882E
:1023200000000000007000880104010411081FFC77
:102330000004000000F8014401440144014400C8C5
:1023400000000000010401040FFC1104110411003D
:102350001800000000D601290129012901C9010640
:10236000000010041FFC008401000100010400FCB7
:10237000000400000104190419FC0004000400001A
:1023800000000000000300010101190119FE000016
:10239000000010041FFC0024004001B4010C0104E3
:1023A00000000000100410041FFC000400040000E2
:1023B0000000010401FC0104010001FC0104010012
:1023C00000FC010401FC008401000100010400FC88
:1023D0000004000000F8010401040104010400F8F5
:1023E0000000010101FF0085010401040088007064
:1023F000000000000070008801040104010501FFD5
:1024000000010104010401FC0084010401000180B9
:102410000000000000CC01240124012401240198C3
:10242000000000000100010007F8010401040000A1
:102430000000010001F8000400040004010801FC90
:102440000004010001800170000C00100160018097
:10245000010001F0010C003001C00030010C01F05E
:10246000010000000104018C00740170018C010462
:102470000000010101810171000E0018016001805E
:10248000010000000184010C013401440184010CAD
:102490000000000000000000000001003EFC4002BF
:1024A00040020000000000000000FFFF00000000EC
:1024B00000000000400240023EFC0100000000005D
:1024C000000000006000800080004000400020000C
:1024D00020000000F4240008000000208C00000010
:1024E000A6180008802500088C00002004080000C1
:1024F000B618000800A24A04000000000000000016
:102500000102030406070809000000000102030499
:10251000010203040607080902040608000000007F
:102520000000A0410000000000008040000000000A
:102530000000000000000000000000000000A041BA
:10254000000000000000A0400000000000000000AB
:1025500000000000000000000000C8420000C84267
:10256000000000000000000000000000000000006B
:10257000000000000000000000000000000000005B
:04000005080000ED02
:00000001FF
