:020000040800F2
:10000000B808002001010008350A00088909000825
:10001000310A000885060008571E0008000000008D
:1000200000000000000000000000000011130008A4
:10003000C507000800000000290F00085918000833
:100040001B0100081B0100081B0100081B01000820
:100050001B0100081B0100081B0100081B01000810
:100060001B0100081B0100081B0100081B01000800
:100070001B0100081B0100081B0100081B010008F0
:100080001B0100081B0100081B0100081B010008E0
:100090001B0100081B0100081B0100081B010008D0
:1000A0001B0100081B0100081B0100081B010008C0
:1000B000BD1800081B0100081B0100081B010008F7
:1000C0001B0100081B0100081B0100081B010008A0
:1000D0001B010008151C00081B010008451C000836
:1000E0001B0100081B0100081B010008DFF80CD0F1
:1000F00000F0B0FA00480047091F0008B8080020C7
:100100000648804706480047FEE7FEE7FEE7FEE7B1
:10011000FEE7FEE7FEE7FEE7FEE7FEE75D18000804
:10012000ED000008F0B480EA0102D40F4200B2EB07
:10013000410F02D20246084611464A0042D0C30D82
:10014000DDB2C1F3C752AD1A202D35DAC1F3160165
:1001500041F4000204B15242C5F1200602FA06F150
:100160002A411044B3EBD05F23D0C4B1012DA0EBE2
:10017000C35009DCF0BC4FF0004202EAC352DBB2CC
:1001800000F5000000F0DAB9400000F1807000EBEB
:10019000C350A0F1807040EAD170490009E04908DD
:1001A00041EAC071A0EBC35000F50000400800EB2D
:1001B000C350F0BC00F0B9B96142012202EB410129
:1001C000001BF6E7F0BC704781F00041AAE780F021
:1001D0000040A7E780EA010210B502F000434000AA
:1001E00022D04A001FD0010E01EB1261C0F356006D
:1001F000C2F3560240F4000042F40002A0FB0220C9
:1002000000047F39140400D0401C50EA124001D48D
:100210004000491EC2B20C0604EBD010401C40083E
:10022000802A02D003E0002010BD20F00100002948
:1002300000DA0020184310BD30B480EA010202F059
:10024000004530F0004221F0004013D090B1C30DC2
:10025000D40DC2F31601C0F31600E41A41F40001F4
:1002600040F400027D34914201D3641C00E0490057
:10027000002C02DA30BC002070474FF4000000234D
:10028000914201D3891A034340084FEA4101F7D153
:1002900051B1914202D14FF0004105E002D24FF03E
:1002A000010101E06FF0010103EBC450284430BCB0
:1002B00000F03BB92DE9FE4F804681EA0300C00FF4
:1002C0000C46009021F0004123F00045B8EB0200FD
:1002D000A94105D24046214690461C460B4602469F
:1002E00023F00040104347D0270DC7F30A00C3F3A3
:1002F0000A510290401A019040286BDAC3F31300B0
:1003000040F4801B0098924620B10023D2EB030AF0
:1003100063EB0B0B01985946C0F14002504600F0C8
:10032000D3F806460D4650465946019A00F0EBF8C0
:1003300010EB08006141002487EA115284EAE77358
:100340001A4340D0009A62B3019A012A4FEA075239
:1003500015DC001B61EB02014FF0004202EA07527C
:10036000CDE90042001C41F5801132462B4600F0D9
:1003700022F903B0BDE8F08F40462146F9E7001BA3
:1003800061EB0201001C41F5801300185B4120184D
:10039000A2F5001747EB030140EAD570B6196D418D
:1003A00011E06D084FEA360645EAC0754FEA07527C
:1003B000001B61EB0201001C41F5801149084FEA66
:1003C00030000019514132462B4603B0BDE8F04FD2
:1003D00000F0E2B80098012240000023D0EB0202B6
:1003E00063EBE073009821464FEAE074B8EB00003D
:1003F00061EB0401E9E783F000435BE781F0004132
:1004000058E7C10F80EAE0700844CA07962300212C
:1004100000F094B896230022114600F08FB820F027
:100420000040C10DC0F3160040F400007F2901DA3E
:1004300000207047962903DCC1F19601C84070473F
:10044000963988407047C1F30A5210B5C1F31301C1
:1004500040F2FF3341F480119A4201DA002010BDCE
:1004600040F233439A42A2F2334203DC524200F09C
:100470003AF810BD904010BD00F0004230F000404E
:100480000AD0C10D01F56071C0F3160042EA0151B6
:10049000C208400711437047002001467047000022
:1004A000002801DBC0F10040002901DBC1F100415F
:1004B00081427047002801DBC0F10040002901DBC8
:1004C000C1F1004188427047202A04DB203A00FA3B
:1004D00002F1002070479140C2F1200320FA03F39B
:1004E000194390407047202A04DB203A21FA02F099
:1004F0000021704721FA02F3D040C2F1200291405E
:10050000084319467047202A06DBCB17203A41FAE8
:1005100002F043EAE07306E041FA02F3D040C2F190
:10052000200291400843194670470029A8BF704730
:10053000401C490008BF20F00100704710B4B0FA19
:1005400080FC00FA0CF050EA010404BF10BC7047B4
:1005500049B1CCF1200421FA04F411FA0CF118BFCE
:10056000012121430843A3EB0C01CB1D4FEA00619D
:100570004FEA102042BF002010BC704700EBC35070
:1005800010440029A4BF10BC7047401C490008BF9C
:1005900020F0010010BC704710B5141E73F1000468
:1005A00008DA401C41F1000192185B411A4301D165
:1005B00020F0010010BD2DE9F04D92469B4611B18F
:1005C000B1FA81F202E0B0FA80F220329046FFF7F1
:1005D0007BFF04460F4640EA0A0041EA0B015346FE
:1005E0005A46084313D0114653EA010019D0C8F106
:1005F00040025046FFF777FF05460E4650465946E3
:100600004246FFF761FF084305D0012004E0204681
:100610003946BDE8F08D0020054346EAE0762C43DC
:1006200037430A986305E40AA0EB08000022FD0A9C
:1006300044EA47540A3002D500200146E9E70105A3
:1006400010196941DDE9084500196941BDE8F04D1F
:10065000A2E70000064C074D06E0E06840F0010309
:1006600094E8070098471034AC42F6D3FFF742FDF8
:10067000D02A0008F02A00080149086070470000ED
:1006800000860D4200BFFEE701460A2900DC09B9D9
:10069000002070472420214A10700B293CD2DFE84B
:1006A00001F03B060B10151A1F24292F35000520D9
:1006B0001A4A50710620ECE70920184A50720A20A5
:1006C000E7E70D20154A50730E20E2E71120134A88
:1006D00050741220DDE71520104A50751620D8E717
:1006E00019200E4A50761A20D3E71D200B4A507766
:1006F0001E20CEE72120094A82F821002220C8E7E7
:100700002520064A82F825002620C2E72920034A30
:1007100082F829002A20BCE70020BAE788040020DC
:1007200013B50C460A2C00DC04B91CBD0B2C43D2BB
:10073000DFE804F042060C12181E242A30363C0072
:1007400001221F49684600F03EF835E005221C49A9
:10075000684600F038F82FE009221949684600F091
:1007600032F829E00D221649684600F02CF823E003
:1007700011221349684600F026F81DE015221049A1
:10078000684600F020F817E019220D49684600F08D
:100790001AF811E01D220A49684600F014F80BE02F
:1007A00021220749684600F00EF805E02522044999
:1007B000684600F008F800BF00BF00BFB5E70000C2
:1007C00088040020704730B503461C788C545D784F
:1007D000541C0D559D78941C0D55DD78D41C0D5579
:1007E00030BD2DE9F04102460025002600200023FF
:1007F0000024002791F803C00CF00F0591F803C006
:100800000CF0100CBCF1000F03D091F802C04CEAC0
:10081000050591F800C0BCF1000F31D0146800202C
:100820002BE04FF0010C0CFA00F3B1F800C00CEA19
:1008300003069E4220D183004FF00F0C0CFA03F701
:10084000BC4305FA03FC4CEA040491F803C0BCF174
:10085000280F06D14FF0010C0CFA00FCC2F814C0AE
:100860000AE091F803C0BCF1480F05D14FF0010C2C
:100870000CFA00FCC2F810C0401C0828D1D3146048
:10088000B1F800C0BCF1FF0F34DD546800202EE049
:1008900000F1080C4FF0010808FA0CF3B1F800C0A1
:1008A0000CEA03069E4221D183004FF00F0C0CFA94
:1008B00003F7BC4305FA03FC4CEA040491F803C0B7
:1008C000BCF1280F05D100F1080C08FA0CF8C2F8A9
:1008D000148091F803C0BCF1480F07D100F1080C57
:1008E0004FF0010808FA0CF8C2F81080401C0828E4
:1008F000CED35460BDE8F081F0B50A460023002451
:100900000021002500F00046B6F1004F02D11D4E37
:10091000F16901E01B4E7168C0F3034583B200F436
:100920004016B6F5401F08D121F07061154E76686B
:1009300026F07066134F7E6012E000F48016B6F564
:10094000801F06D1032606FA05F4A14341F0706129
:1009500006E0460D360103FA06F6B14341F0706138
:1009600022B1460D360103FA06F6314300F0004687
:10097000B6F1004F02D1034EF16101E0014E71600A
:10098000F0BD00000000014000BFFEE700B5002000
:1009900015490861C8601420486100208861C86159
:1009A0000846006840F001000860084640680F49AA
:1009B00008400D494860084600680D4908400A494A
:1009C00008600846006820F48020086008464068F7
:1009D00020F4FE0048600020886000214FF0006095
:1009E00000F01CF800BD0000001002400000FFF8FD
:1009F000FFFFF6FE0146072323EA01021202054B20
:100A000018684FF6FF031840034B18431043014B7F
:100A1000186070470CED00E00000FA05024A0A4039
:100A20000243024B1A60704780FFFF1F08ED00E091
:100A300000BFFEE77047000070B5002100230F22C1
:100A4000C47804B3154C246804F4E064C4F5E0648D
:100A5000210AC1F10403CA40447804FA03F18478FE
:100A60001440214309010E4C0678A155047804F086
:100A70001F050124AC4005786D11AD0005F1E0259E
:100A8000C5F8004109E0047804F01F050124AC40DA
:100A9000044D0678761145F8264070BD0CED00E057
:100AA00000E400E080E100E002490143024A1160F5
:100AB000704700000000FA050CED00E030B500249E
:100AC0000CE0002506E00020074901EBC5010855B0
:100AD000681CC5B2802DF6DB601CC4B2082CF0DBAC
:100AE00000F0ECF830BD000088000020F0B514469E
:100AF00000267F2801DC3F2900DDF0BD0B46CF1723
:100B000001EB5777FF10C7F10707FAB2CF1701EBD8
:100B10005777FF10A1EBC707FDB2C5F10707012307
:100B2000BB40DEB24CB10A4B03EBC0039B5C3343CA
:100B3000074F07EBC007BB5408E0054B03EBC003AE
:100B40009B5CB343024F07EBC007BB5400BFD4E725
:100B50008800002008B50121082000F08BFA01214F
:100B6000084600F087FA01214F48FFF7C5FE3820FC
:100B7000ADF8000010208DF8030002208DF802006F
:100B800069464A48FFF72DFE0121042000F072FA61
:100B90004FF40040ADF8000002208DF80200102054
:100BA0008DF8030069464248FFF71BFE012000F064
:100BB000B5F9002000F0D8FA0020FFF75DFD002015
:100BC00000F0ACF900203B490860642001F076F9A0
:100BD00001203949C1F88C010021AE2000F072F9E2
:100BE0000021D52000F06EF90021502000F06AF9B4
:100BF0000021A82000F066F900213F2000F062F9F2
:100C00000021D32000F05EF90021084600F05AF9D7
:100C10000021402000F056F900218D2000F052F90B
:100C20000021142000F04EF90021202000F04AF9A4
:100C30000021022000F046F90021A12000F042F935
:100C40000021C02000F03EF90021DA2000F03AF93E
:100C50000021122000F036F90021812000F032F945
:100C60000021EF2000F02EF90021D92000F02AF910
:100C70000021F12000F026F90021DB2000F022F90C
:100C80000021302000F01EF90021A42000F01AF904
:100C90000021A62000F016F90021AF2000F012F983
:100CA000FFF70CFF08BD000000023000000C0140FF
:100CB000000801408C8121420080214230B500248F
:100CC0001CE004F1B001C8B2002100F0FBF80021E3
:100CD000084600F0F7F80021102000F0F3F8002596
:100CE00008E0084901EBC501085D012100F0EAF8C0
:100CF000681CC5B2802DF4DB601CC4B2082CE0DB9C
:100D000030BD0000880000202DE9F04F80460C46E1
:100D100015461E46A346A5F12000C5B200273EE0B9
:100D20000C2E07D105EB45001F4901EB800010F8A0
:100D3000079004E01D4800EB051010F807904FF0F5
:100D4000000A26E009F0800028B121464046099AB1
:100D5000FFF7CCFE09E0099808B9012000E0002067
:100D6000024621464046FFF7C1FE4FEA49604FEA7E
:100D70001069601CC4B2A4EB0B00B04205D15C4604
:100D800008F1010000F0FF0806E00AF1010000F0A0
:100D9000FF0ABAF1080FD5DB00BF781CC7B2B74213
:100DA000BEDBBDE8F08F00006C200008E0240008E6
:100DB0002DE9F04F8BB005468B4616461F46304650
:100DC000FFF72DFB80464046FFF724FB314601909C
:100DD000FFF7FDF927490290FFF7FCF90390FFF7B1
:100DE0004BFB0022244BCDE90401FFF763FACDE968
:100DF0000601FFF728FB0446642C02D308F1010822
:100E0000643C3B4642465946284600F039F8E91909
:100E1000C8B21AA2594600F046F80A20B4FBF0F90D
:100E2000B4FBF0F100FB11410991E819401CC0EB43
:100E3000C00000F0FF0A0BEB8B004006000E08908C
:100E40000120009009F13000C2B20C2350460899ED
:100E5000FFF75AFF0120009009993031CAB20AF118
:100E60000601C8B20C230899FFF74EFF0BB0BDE88E
:100E7000F08F00000000C8420000E03F2E0000009C
:100E8000F8B504460D4616461F460C2005EB8502B4
:100E90005206110EC4EBC4020090D0B23B4632465B
:100EA00000F012FCF8BD70B504460D46164605EB81
:100EB00085025206110EC4EBC402D0B2324600F0D5
:100EC0004DFC70BD10B50A461AB10123114C2360C8
:100ED00002E000230F4C2360002114E000230E4C9D
:100EE000236000F080031BB10123241F236003E073
:100EF0000023094C241F23600123074C2360430671
:100F0000180E4B1CD9B20829E8DB0123014C2360E1
:100F100010BD0000BC0121429481214201490862B8
:100F20007047000000000E42704700002DE9F047B6
:100F300004460D4629462046FFF749F91E49C86078
:100F40000A46D1685069FFF7EDF81B4948610A4627
:100F50009169D068FFF738F981461748816848469B
:100F6000FFF738F980461549FFF766F90646124A39
:100F700051695068FFF72EF982461049FFF75CF976
:100F800080460D4AD1681068FFF724F982460B4964
:100F9000FFF752F981464146FFF7C4F8074631464C
:100FA000FFF7C0F8044908610846C0688861084630
:100FB0000069BDE8F08700002C0000200000C84256
:100FC0002DE9F04704460D4629462046FFF7FFF875
:100FD0001E49C8600A46D1685069FFF7A3F81B494B
:100FE00048610A469169D068FFF7EEF881461748D4
:100FF00081684846FFF7EEF880461549FFF71CF96F
:101000000646124A51695068FFF7E4F882461049D3
:10101000FFF712F980460D4AD1681068FFF7DAF839
:1010200082460B49FFF708F981464146FFF77AF8F7
:1010300007463146FFF776F8044908610846C0685C
:10104000886108460069BDE8F0870000480000207C
:101050000000C84229B1064AD2690243044BDA6152
:1010600004E0034AD2698243014BDA617047000011
:101070000010024029B1064A92690243044B9A616A
:1010800004E0034A92698243014B9A617047000071
:101090000010024030B500210022002400232D4D15
:1010A0006D6805F00C0121B1042905D0082923D170
:1010B00005E0294D056022E0274D05601FE0254D24
:1010C0006D6805F47012234D6D6805F480340225B7
:1010D00005EB92421CB9214D554305600BE01D4DB7
:1010E0006D6805F400351DB11C4D5543056002E0E7
:1010F000194D5543056002E0174D056000BF00BF64
:10110000144D6D6805F0F0010909154D6B5C05681B
:10111000DD4045600F4D6D6805F4E061090A104D32
:101120006B5C4568DD4085600A4D6D6805F4605173
:10113000C90A0B4D6B5C4568DD40C560054D6D68A7
:1011400005F44041890B074D6B5CC568B5FBF3F5B1
:10115000056130BD0010024000127A0000093D0018
:10116000140000202400002000210B4A11700A4ABC
:10117000203A82F82010012802D0042808D103E088
:101180000121054A117004E00521034A117000E0B5
:1011900000BF00BF70470000201002402DE9F0475B
:1011A000044656480078072841D2DFE800F0040CD6
:1011B000141C242C3400AA2C04D150480078401C64
:1011C0004E49087037E04E4804704C480078401C87
:1011D0004A4908702FE04A48447048480078401C4B
:1011E0004649087027E04648847044480078401C0F
:1011F000424908701FE04248C47040480078401CD3
:101200003E49087017E03E4804713C480078401C95
:101210003A4908700FE0552C05D138480078401C39
:101220003649087002E000203449087003E00020CD
:101230003249087000BF00BF3048007807285AD1F3
:101240002F4909782E4AD27811442D4A52781144F8
:101250002B4A927888182A490979C21700EB126242
:101260001212A0EB0222914245D125484078244930
:10127000097840EA012006B22148C07820498978DF
:1012800040EA012007B2C6F30E00FFF7BAF8804625
:1012900006F4004008B188F00048C7F30E00FFF7DD
:1012A000B0F8054607F4004008B185F0004515493F
:1012B0004046FEF7C1FF8146134801684846FEF7E5
:1012C00031FF114908600F492846FEF7B5FF8146F6
:1012D0000E4801684846FEF725FF0C4908600020CB
:1012E00003E00021064A1154401C0528F9DB0020C8
:1012F0000249087000BFBDE8F08700006C000020C4
:101300006D000020000020416400002068000020E3
:101310007047000010B586B0044601218804FFF72D
:1013200099FE01210820FFF7A5FE18208DF817006F
:101330004FF48060ADF8140003208DF8160005A965
:101340001F48FFF74EFA48208DF817004FF4006051
:10135000ADF8140003208DF8160005A91848FFF712
:1013600040FA01940020ADF810000C20ADF80E00FA
:101370000020ADF80C00ADF80A00ADF8080001A996
:10138000104800F0F3FC012240F225510D4800F016
:10139000C7FC4FF4A060FFF787FB27208DF8000003
:1013A00001208DF803008DF801008DF802006846D9
:1013B000FFF742FB0121034800F06FFC06B010BDAF
:1013C000000C01400048004010B504462146054885
:1013D00000F03DFD00BF8021024800F06AFC0028BB
:1013E000F9D010BD0048004010B586B00446012178
:1013F0008803FFF73FFE01210420FFF73BFE182082
:101400008DF817004FF40070ADF8140003208DF82C
:10141000160005A91F48FFF7E4F948208DF81700CA
:101420004FF48060ADF8140003208DF8160005A974
:101430001848FFF7D6F901940020ADF810000C20F1
:10144000ADF80E000020ADF80C00ADF80A00ADF8C4
:10145000080001A9104800F089FC012240F2255142
:101460000D4800F05DFC4FF4A060FFF71DFB252048
:101470008DF8000001208DF803008DF801008DF833
:1014800002006846FFF7D8FA0121034800F005FC86
:1014900006B010BD000801400038014010B50446F8
:1014A0002146054800F0D3FC00BF8021024800F02F
:1014B00000FC0028F9D010BD0038014000B589B00B
:1014C00001210220FFF7C6FD01210820FFF7D2FD10
:1014D0000320ADF8200018208DF8230003208DF89C
:1014E000220008A91E48FFF77CF949F63F40ADF8F5
:1014F00018002320ADF814000020ADF81A00ADF854
:10150000160005A9174800F033FB6020ADF8040071
:101510000120ADF806000020ADF80C0040F6B83010
:10152000ADF80A0001A90F4800F078FA08210D482B
:1015300000F0C4FA40F6B830ADF80A0001A9094835
:1015400000F0C6FA0821074800F000FB0121054819
:1015500000F02FFA0121034800F03AFA09B000BD6B
:10156000000C0140000400402DE9F04107460C4604
:1015700016493846FEF794FF00D2144F14493846F6
:10158000FEF798FF00D2124F12493846FEF722FEAE
:1015900080461149FEF7C6FD05464FF07C512846AE
:1015A000FEF7C0FD8046FEF73AFF86B2012C04D15B
:1015B00031460A4800F0D7FA05E0022C03D1314643
:1015C000064800F0D2FABDE8F08100000000F041CA
:1015D000000034435655854100007A440004004021
:1015E00010B500F001F810BD0CB50020019000907E
:1015F0003348006840F480303149086000BF30480B
:10160000006800F4003000900198401C01900098A0
:1016100018B90198B0F5A06FF1D12948006800F41D
:10162000003010B10120009001E0002000900098EF
:10163000012843D12348006840F010002149086088
:101640000846006820F0030008600846006840F083
:10165000020008601A484068194948600846406816
:1016600048600846406840F480604860084640682A
:1016700020F47C1048600846406840F4E810486058
:101680000846006840F08070086000BF0C480068A1
:1016900000F000700028F9D00948406820F00300ED
:1016A000074948600846406840F00200486000BFB3
:1016B0000348406800F00C000828F9D10CBD000078
:1016C00000100240002002402DE9FF4F81B0074684
:1016D00091461E460E9D4FF0000A002439E0301B53
:1016E000401EC1B20A2000F09FFCB9FBF0F00A21B5
:1016F000B0FBF1F201FB1208BAF1000F16D1701E17
:10170000A04213DDB8F1000F0ED10120AB4605EB6E
:10171000DB71491001FB04710090C8B22B462022F6
:101720000299FFF7F1FA12E04FF0010A0120AB46EF
:1017300005EBDB71491001FB04710090C8B208F1A0
:101740003001CAB22B460299FFF7DEFA00BF601CD7
:10175000C4B2B442C3DB05B0BDE8F08F78B505462E
:101760000E46144618E07A2D03DD002506F1100020
:10177000C6B23A2E04DD002005460646FFF79EF964
:101780000120009022780C2331462846FFF7BCFA4E
:1017900005F10800C5B2641C20780028E3D178BDAB
:1017A00030B504460025FFF7F1F81F48006840F403
:1017B00080301D49086000BF1B480068400C0028AD
:1017C000FAD04FF4806018494860A01EC4B20846A1
:1017D000406840EA844048600846406840F48030F1
:1017E00048601248006840F03200104908600E4816
:1017F000006840F080700C49086000BF0A4800682B
:10180000400E0028FAD00848406840F0020006491F
:10181000486005E004484068C0F3870505F003050B
:10182000022DF7D130BD0000001002400020024020
:10183000042808D14FF0E021096941F004014FF07C
:10184000E022116107E04FF0E021096921F0040175
:101850004FF0E022116170477047000010B5134847
:10186000006840F0010011490860084640681049CE
:1018700008400E494860084600680E4908400B4978
:1018800008600846006820F4802008600846406828
:1018900020F4FE0048604FF41F008860FFF7A0FEB0
:1018A0004FF000600449086010BD000000100240C5
:1018B0000000FFF8FFFFF6FE08ED00E010B5012183
:1018C000880700F091F8002837D01C48006800F025
:1018D000B7FB1A4908601A48006800F0B1FB1849C4
:1018E0000860184918480068FFF720FB174908608E
:1018F000144917480068FFF763FB1649086013484E
:10190000016811480068FEF70DFC0F490860114896
:1019100001680F480068FEF705FC0D4908600121C9
:1019200009480068FFF720FE022109480068FFF718
:101930001BFE0121880700F048F810BD640000205C
:1019400068000020333361427C00002074000020D6
:1019500080000020780000201FB501210846FFF715
:1019600079FB6320ADF8080041F61F40ADF8040094
:101970000020ADF80A00ADF8060001A94FF0804044
:1019800000F0F6F801221146900700F03EF81C2006
:101990008DF8000001208DF801008DF802008DF80F
:1019A00003006846FFF748F80121880700F010F8A7
:1019B0001FBD21B1028842F08002028004E002884B
:1019C0004FF67F731A4002807047CA430282704705
:1019D00021B1028842F00102028004E002884FF641
:1019E000FE731A400280704730B502460020002383
:1019F0000024158A05EA0103958905EA010413B15B
:101A00000CB1012000E0002030BD1AB183890B43E6
:101A1000838102E083898B438381704770B5002402
:101A200000220023058C4FF6FF6635400584028CAA
:101A30008388848B4FF68F752C404FF6FC752C40B5
:101A40000D882C434FF6FF552A400D894FF6FF763F
:101A500006EA05252A434D8806EA05252A43154D41
:101A6000A84202D0144DA8421DD14FF2FF752A4062
:101A70004D894FF6FF7606EA05252A434FF6FF35D6
:101A80002A408D8806EA05252A434EF6FF752B402D
:101A90004DF6FF752B408D8906EA05152B43CD8940
:101AA00006EA05152B4383808483CD8885870284CD
:101AB00070BD0000002C0140003401400A460021A6
:101AC000818B4FF6F77319401143818370470000F3
:101AD00070B5002200230024058C4EF6FF763540B9
:101AE0000584038C8488828B48F6FF752A404FF664
:101AF000FF452A400D884FF6FF7606EA05252A4362
:101B00004DF6FF752B400D8906EA05352B434D88B0
:101B100006EA05352B430B4DA84202D00A4DA842D8
:101B200008D14BF6FF752C408D894FF6FF7606EAFB
:101B300085152C4384808283CD88A0F8405003848F
:101B400070BD0000002C0140003401400A46002115
:101B5000818B4FF2FF7319404FF6FF7303EA0223A4
:101B600019438183704781877047A0F84010704700
:101B7000002202881D4B98420ED01D4B98420BD07C
:101B8000B0F1804F08D01B4B984205D01A4B9842B9
:101B900002D01A4B984204D14FF68F731A404B88EB
:101BA0001A43174B984207D0164B984204D04FF671
:101BB000FF431A40CB881A4302808B8883850B88A9
:101BC00003850A4B98420BD0094B984208D00E4B24
:101BD000984205D00D4B984202D00D4B984201D14E
:101BE0000B7A03860123838270470000002C01409A
:101BF000003401400004004000080040000C004098
:101C0000001000400014004000400140004401402A
:101C10000048014010B540F22551094800F056F83F
:101C200001280CD1064800F00DF9C4B22046FFF798
:101C300035FC40F22551024800F020F800BF10BDED
:101C40000038014010B540F225510B4800F03EF835
:101C500001280FD1084800F0F5F8C4B22046FFF77C
:101C60009DFA2046FFF7B0FB40F22551024800F0F4
:101C700005F800BF10BD00000048004010B500226C
:101C8000002340F66A14A14200D100BF0A120124C9
:101C90009440A3B2DC43048010BD21B1828942F498
:101CA0000052828104E082894DF6FF731A408281DE
:101CB000704702460020B1F5007F00D100BF1388B5
:101CC0000B400BB1012000E00020704770B50246C8
:101CD000002400230025002040F66A16B14200D1FE
:101CE00000BFC1F3421501F01F03012606FA03F3FA
:101CF000012D02D19689334006E0022D02D1168AC9
:101D0000334001E0968A33400C12012606FA04F4AF
:101D10001688344013B10CB1012000E0002070BDE2
:101D2000F0B50346002400260025002040F66A177F
:101D3000B94200D100BF1846C1F3421401F01F069A
:101D4000012707FA06F5012C01D10C3004E0022C22
:101D500001D1103000E014301AB107682F4307603A
:101D600002E00768AF430760F0BD00002DE9F047CF
:101D700086B005460E460024A24600BFA1460027B5
:101D8000B08900B100BF2F462C8A4CF6FF7004408A
:101D9000F08804432C82AC894EF6F3100440B088DE
:101DA00031890843718908430443AC81AC8A4FF6FA
:101DB000FF400440B0890443AC8201A8FFF76AF9F0
:101DC0001F48874202D1DDF810A001E0DDF80CA029
:101DD000A88900F4004040B10AEBCA0000EB0A10E9
:101DE00031684900B0FBF1F807E00AEBCA0000EBEC
:101DF0000A1031688900B0FBF1F86420B8FBF0F0FC
:101E000004012009642101FB1089A88900F4004025
:101E100040B1322000EBC900B0FBF1F000F0070048
:101E2000044308E0322000EB09106421B0FBF1F01C
:101E300000F00F0004432C8106B0BDE8F0870000DD
:101E40000038014001468888C0F308007047C1F39C
:101E500008028280704700BFFEE702E008C8121F38
:101E600008C1002AFAD170477047002001E001C183
:101E7000121F002AFBD1704710B56FF00400FFF766
:101E8000D7FC0A4800680A49B0FBF1F0094908701C
:101E90000846007800EB4001C1EBC0104FF6FF711F
:101EA00001EAC0000449088010BD000000000020C5
:101EB00000127A00280000202A0000200146114A62
:101EC00012884A434FF0E0235A6100229A611A4671
:101ED000126942F001021A6100BF4FF0E02210695E
:101EE00000F001021AB100F48032002AF5D04FF060
:101EF000E022126922F001024FF0E0231A61002271
:101F00009A6170472A0000200220FEF773FD092025
:101F1000FFF746FCFFF7B0FF4FF4E130FFF764FA3C
:101F20004FF4E130FFF7F6F9FFF7C8FA32483349CA
:101F30000860334908604FF4FA70FFF7BFFF4FF4B1
:101F4000FA70FFF7BBFF4FF4FA70FFF7B7FF4FF4DB
:101F5000FA70FFF7B3FFFFF7FFFCFEF7FBFD4AE067
:101F60000A20FFF7ABFF27A200210846FEF79BFFE0
:101F700025A201210020FEF796FF0423204800211E
:101F800002680220FEF714FF04231C4801210268A6
:101F90000220FEF70DFFFEF791FE0A20FFF78EFFED
:101FA00001211A48FEF7BCFB022119480068FEF720
:101FB000B7FB032117480068FEF7B2FB042116485F
:101FC0000068FEF7ADFB052114480068FEF7A8FB8A
:101FD0000A20FEF759FB12490870002404E0114959
:101FE000085DFFF7F1F9641C0D4800788442F6DBC8
:101FF0003220FFF763FFB3E70000F04268000020E3
:1020000064000020583A0000593A0000333361421E
:102010007C00002080000020740000207800002058
:10202000840000208804002010B50246012000E052
:1020300050430B1EA1F10104E1B2F9D110BD000023
:1020400010B5044607492046FEF72AFA01D2054892
:1020500010BD05492046FEF72DFA01D20248F7E7E8
:102060002046F5E70000F041000034430000000086
:102070000000000000000000000000003F400000E1
:102080000000000000003000400030004000000070
:1020900009000BC03D000BC03D00090018C02440E2
:1020A0007FE0224031800000180024C01B000D801A
:1020B0003240018003801C4027401C8007400040C4
:1020C00010006000000000000000000000000000A0
:1020D00000001F80204040200000402020401F8042
:1020E00000000000090006001F8006000900000033
:1020F000040004003F8004000400000000100060A1
:1021000000000000000000000400040004000400BF
:10211000040000000000004000000000000000007B
:10212000002001C006003800400000001F80204051
:10213000204020401F800000000010403FC00040B1
:102140000000000018C02140224024401840000038
:1021500010802040244024401B80000002000D001D
:1021600011003FC0014000003C8024402440244036
:10217000238000001F80244024403440038000005E
:102180003000200027C03800200000001B802440C1
:10219000244024401B8000001C0022C0224022401A
:1021A0001F80000000000000084000000000000048
:1021B00000000000046000000000000000000400B7
:1021C0000A001100208040400900090009000900B0
:1021D0000900000000004040208011000A000400B7
:1021E0001800200023402400180000001F80204019
:1021F000274029401F400000004007C039000F0061
:1022000001C0004020403FC0244024401B8000000B
:102210001F802040204020403080000020403FC0F0
:10222000204020401F80000020403FC024402E401E
:1022300030C0000020403FC024402E00300000008D
:102240000F001080204022403380020020403FC019
:10225000040004003FC02040204020403FC02040F8
:10226000204000000060202020203FC020002000EF
:1022700020403FC024400B0030C0204020403FC0E1
:1022800020400040004000C03FC03C0003C03C0074
:102290003FC0000020403FC00C4023003FC0200052
:1022A0001F802040204020401F80000020403FC071
:1022B00024402400180000001F802140214020E01D
:1022C0001FA0000020403FC02440260019C000404D
:1022D00018C02440244022403180000030002040BB
:1022E0003FC020403000000020003F800040004000
:1022F0003F80200020003E0001C007003800200081
:10230000380007C03C0007C038000000204039C03A
:10231000060039C0204000002000384007C0384087
:1023200020000000304021C02640384020C000007E
:10233000000000007FE0402040200000000070000E
:102340000C000380004000000000402040207FE09F
:1023500000000000000020004000200000000000FD
:10236000001000100010001000100010000000000D
:102370004000000000000000000002800540054011
:1023800003C0004020003FC0044004400380000020
:102390000000038004400440064000000000038069
:1023A000044024403FC00040000003800540054039
:1023B00003400000000004401FC0244024402000CF
:1023C000000002E0055005500650042020403FC0A8
:1023D0000440040003C000400000044027C0004047
:1023E0000000000000100010041027E000000000B2
:1023F00020403FC00140070004C00440204020406E
:102400003FC000400040000007C0040007C00400B7
:1024100003C00000044007C00440040003C00040A3
:10242000000003800440044003800000041007F013
:102430000450044003800000000003800440045066
:1024400007F00010044007C0024004000400000030
:10245000000006400540054004C0000000000400E4
:102460001F8004400040000004000780004004403A
:1024700007C000400400070004C0018006000400FB
:10248000060001C0070001C006000000044006C0AD
:10249000010006C0044000000410071004E00180A1
:1024A000060004000000044005C00640044000008F
:1024B0000000000004007BE040200000000000005D
:1024C0000000FFF000000000000040207BE004005E
:1024D000000000004000800040002000200040007C
:1024E00000000000000000000000000000000000EC
:1024F0000000000000001FCC000C000000000000E5
:10250000000008003000600008003000600000009B
:10251000022003FC1E20022003FC1E2002200000DB
:1025200000000E1811043FFF10840C78000000001A
:102530000F0010840F3800C007781884007800005E
:1025400000780F8410C411240E9800E40084000861
:10255000080068007000000000000000000000009B
:1025600000000000000007E01818200440020000EE
:10257000000040022004181807E0000000000000DE
:102580000240024001800FF0018002400240000042
:102590000080008000800FF8008000800080000034
:1025A0000001000D000E000000000000000000000F
:1025B000000000800080008000800080008000809B
:1025C0000000000C000C00000000000000000000F3
:1025D00000000006001800600180060018002000BE
:1025E000000007F0080810041004080807F00000B5
:1025F0000000080408041FFC0004000400000000A0
:1026000000000E0C10141024104411840E0C000055
:1026100000000C1810041104110412880C70000042
:10262000000000E00320042408241FFC0024000014
:1026300000001F981084110411041088107000000D
:10264000000007F0088811041104188800700000C9
:1026500000001C00100010FC13001C001000000003
:1026600000000E3811441084108411440E3800000C
:1026700000000700088C10441044088807F0000090
:10268000000000000000030C030C0000000000002C
:102690000000000000010106000000000000000032
:1026A000000000800140022004100808100400000F
:1026B000022002200220022002200220022000002C
:1026C00000001004080804100220014000800000EF
:1026D00000000E001200100C106C10800F000000A3
:1026E00003E00C1813E4142417C4082807D00000D2
:1026F0000004003C03C41C40074000E4001C00042C
:1027000010041FFC1104110411040E880070000055
:1027100003E00C1810041004100410081C10000032
:1027200010041FFC100410041004080807F0000037
:1027300010041FFC1104110417C410040818000031
:1027400010041FFC1104110017C010000800000045
:1027500003E00C181004100410441C780040000022
:1027600010041FFC10840080008010841FFC1004E3
:102770000000100410041FFC1004100400000000EE
:1027800000030001100110011FFE100010000000E6
:1027900010041FFC110403801464181C10040000B2
:1027A00010041FFC1004000400040004000C0000CE
:1027B00010041FFC1F0000FC1F001FFC1004000081
:1027C00010041FFC0C04030000E010181FFC100094
:1027D00007F00808100410041004080807F00000AF
:1027E00010041FFC10841080108010800F00000067
:1027F00007F0081810241024101C080A07F2000023
:1028000010041FFC1104110011C011300E0C000443
:1028100000000E1C11041084108410441C380000A9
:102820001800100010041FFC100410001800000015
:1028300010001FF810040004000410041FF810001A
:1028400010001E0011E0001C007013801C0010001E
:102850001FC0103C00E01F0000E0103C1FC0000043
:102860001004180C163401C001C01634180C1004E2
:1028700010001C00130400FC13041C0010000000D6
:102880000804101C1064108413041C0410180000A9
:102890000000000000007FFE4002400240020000F5
:1028A000000030000C0003800060001C00030000EA
:1028B00000004002400240027FFE000000000000D5
:1028C0000000000020004000400040002000000008
:1028D00000010001000100010001000100010001F0
:1028E0000000400040002000000000000000000048
:1028F00000000098012401440144014400FC00044C
:1029000010001FFC00880104010400880070000012
:102910000000007000880104010401040088000028
:102920000000007000880104010411081FFC00046D
:10293000000000F8014401440144014400C80000C3
:102940000000010401040FFC11041104110018001F
:10295000000000D601290129012901C90106000052
:1029600010041FFC008401000100010400FC0004AD
:1029700000000104190419FC000400040000000018
:102980000000000300010101190119FE0000000010
:1029900010041FFC0024004001B4010C01040000DD
:1029A0000000100410041FFC0004000400000000DC
:1029B000010401FC0104010001FC0104010000FC10
:1029C000010401FC008401000100010400FC00047A
:1029D000000000F8010401040104010400F80000F3
:1029E000010101FF0085010401040088007000005E
:1029F00000000070008801040104010501FF0001CE
:102A00000104010401FC00840104010001800000B4
:102A1000000000CC012401240124012401980000BD
:102A200000000100010007F801040104000000009B
:102A3000010001F8000400040004010801FC000486
:102A4000010001800170000C001001600180010094
:102A500001F0010C003001C00030010C01F0010058
:102A600000000104018C00740170018C010400005D
:102A7000010101810171000E001801600180010057
:102A800000000184010C013401440184010C0000A8
:102A9000000000000000000001003EFC4002400277
:102AA0000000000000000000FFFF00000000000028
:102AB0000000400240023EFC010000000000000057
:102AC00000006000800080004000400020002000E6
:102AD000F02A000800000020880000005A1E0008AC
:102AE000782B000888000020300800006A1E0008CB
:102AF00000A24A04000000000000000001020304DC
:102B00000607080900000000010203040102030493
:102B10000607080902040608000000000000A041A2
:102B20000000000000002041000000000000000044
:102B300000000000000000000000A04100000000B4
:102B40000000204100000000000000000000000024
:102B5000000000000000F0420000F0420000000011
:102B60000000000000000000000000000000F04233
:082B70000000F042000000002B
:04000005080000ED02
:00000001FF
